{
  "_format": "hh-sol-artifact-1",
  "contractName": "Domains",
  "sourceName": "contracts/Domains.sol",
  "abi": [
    {
      "inputs": [
        {
          "internalType": "string",
          "name": "_tld",
          "type": "string"
        }
      ],
      "stateMutability": "payable",
      "type": "constructor"
    },
    {
      "inputs": [],
      "name": "AlreadyRegistered",
      "type": "error"
    },
    {
      "inputs": [
        {
          "internalType": "string",
          "name": "name",
          "type": "string"
        }
      ],
      "name": "InvalidName",
      "type": "error"
    },
    {
      "inputs": [],
      "name": "Unauthorized",
      "type": "error"
    },
    {
      "anonymous": false,
      "inputs": [
        {
          "indexed": true,
          "internalType": "address",
          "name": "owner",
          "type": "address"
        },
        {
          "indexed": true,
          "internalType": "address",
          "name": "approved",
          "type": "address"
        },
        {
          "indexed": true,
          "internalType": "uint256",
          "name": "tokenId",
          "type": "uint256"
        }
      ],
      "name": "Approval",
      "type": "event"
    },
    {
      "anonymous": false,
      "inputs": [
        {
          "indexed": true,
          "internalType": "address",
          "name": "owner",
          "type": "address"
        },
        {
          "indexed": true,
          "internalType": "address",
          "name": "operator",
          "type": "address"
        },
        {
          "indexed": false,
          "internalType": "bool",
          "name": "approved",
          "type": "bool"
        }
      ],
      "name": "ApprovalForAll",
      "type": "event"
    },
    {
      "anonymous": false,
      "inputs": [
        {
          "indexed": true,
          "internalType": "address",
          "name": "from",
          "type": "address"
        },
        {
          "indexed": true,
          "internalType": "address",
          "name": "to",
          "type": "address"
        },
        {
          "indexed": true,
          "internalType": "uint256",
          "name": "tokenId",
          "type": "uint256"
        }
      ],
      "name": "Transfer",
      "type": "event"
    },
    {
      "inputs": [
        {
          "internalType": "address",
          "name": "to",
          "type": "address"
        },
        {
          "internalType": "uint256",
          "name": "tokenId",
          "type": "uint256"
        }
      ],
      "name": "approve",
      "outputs": [],
      "stateMutability": "nonpayable",
      "type": "function"
    },
    {
      "inputs": [
        {
          "internalType": "address",
          "name": "owner",
          "type": "address"
        }
      ],
      "name": "balanceOf",
      "outputs": [
        {
          "internalType": "uint256",
          "name": "",
          "type": "uint256"
        }
      ],
      "stateMutability": "view",
      "type": "function"
    },
    {
      "inputs": [
        {
          "internalType": "string",
          "name": "",
          "type": "string"
        }
      ],
      "name": "domains",
      "outputs": [
        {
          "internalType": "address",
          "name": "",
          "type": "address"
        }
      ],
      "stateMutability": "view",
      "type": "function"
    },
    {
      "inputs": [
        {
          "internalType": "string",
          "name": "name",
          "type": "string"
        }
      ],
      "name": "getAddress",
      "outputs": [
        {
          "internalType": "address",
          "name": "",
          "type": "address"
        }
      ],
      "stateMutability": "view",
      "type": "function"
    },
    {
      "inputs": [],
      "name": "getAllNames",
      "outputs": [
        {
          "internalType": "string[]",
          "name": "",
          "type": "string[]"
        }
      ],
      "stateMutability": "view",
      "type": "function"
    },
    {
      "inputs": [
        {
          "internalType": "uint256",
          "name": "tokenId",
          "type": "uint256"
        }
      ],
      "name": "getApproved",
      "outputs": [
        {
          "internalType": "address",
          "name": "",
          "type": "address"
        }
      ],
      "stateMutability": "view",
      "type": "function"
    },
    {
      "inputs": [
        {
          "internalType": "string",
          "name": "name",
          "type": "string"
        }
      ],
      "name": "getRecord",
      "outputs": [
        {
          "internalType": "string",
          "name": "",
          "type": "string"
        }
      ],
      "stateMutability": "view",
      "type": "function"
    },
    {
      "inputs": [
        {
          "internalType": "address",
          "name": "owner",
          "type": "address"
        },
        {
          "internalType": "address",
          "name": "operator",
          "type": "address"
        }
      ],
      "name": "isApprovedForAll",
      "outputs": [
        {
          "internalType": "bool",
          "name": "",
          "type": "bool"
        }
      ],
      "stateMutability": "view",
      "type": "function"
    },
    {
      "inputs": [],
      "name": "isOwner",
      "outputs": [
        {
          "internalType": "bool",
          "name": "",
          "type": "bool"
        }
      ],
      "stateMutability": "view",
      "type": "function"
    },
    {
      "inputs": [],
      "name": "name",
      "outputs": [
        {
          "internalType": "string",
          "name": "",
          "type": "string"
        }
      ],
      "stateMutability": "view",
      "type": "function"
    },
    {
      "inputs": [
        {
          "internalType": "uint256",
          "name": "",
          "type": "uint256"
        }
      ],
      "name": "names",
      "outputs": [
        {
          "internalType": "string",
          "name": "",
          "type": "string"
        }
      ],
      "stateMutability": "view",
      "type": "function"
    },
    {
      "inputs": [],
      "name": "owner",
      "outputs": [
        {
          "internalType": "address payable",
          "name": "",
          "type": "address"
        }
      ],
      "stateMutability": "view",
      "type": "function"
    },
    {
      "inputs": [
        {
          "internalType": "uint256",
          "name": "tokenId",
          "type": "uint256"
        }
      ],
      "name": "ownerOf",
      "outputs": [
        {
          "internalType": "address",
          "name": "",
          "type": "address"
        }
      ],
      "stateMutability": "view",
      "type": "function"
    },
    {
      "inputs": [
        {
          "internalType": "string",
          "name": "name",
          "type": "string"
        }
      ],
      "name": "price",
      "outputs": [
        {
          "internalType": "uint256",
          "name": "",
          "type": "uint256"
        }
      ],
      "stateMutability": "pure",
      "type": "function"
    },
    {
      "inputs": [
        {
          "internalType": "string",
          "name": "",
          "type": "string"
        }
      ],
      "name": "records",
      "outputs": [
        {
          "internalType": "string",
          "name": "",
          "type": "string"
        }
      ],
      "stateMutability": "view",
      "type": "function"
    },
    {
      "inputs": [
        {
          "internalType": "string",
          "name": "name",
          "type": "string"
        }
      ],
      "name": "register",
      "outputs": [],
      "stateMutability": "payable",
      "type": "function"
    },
    {
      "inputs": [
        {
          "internalType": "address",
          "name": "from",
          "type": "address"
        },
        {
          "internalType": "address",
          "name": "to",
          "type": "address"
        },
        {
          "internalType": "uint256",
          "name": "tokenId",
          "type": "uint256"
        }
      ],
      "name": "safeTransferFrom",
      "outputs": [],
      "stateMutability": "nonpayable",
      "type": "function"
    },
    {
      "inputs": [
        {
          "internalType": "address",
          "name": "from",
          "type": "address"
        },
        {
          "internalType": "address",
          "name": "to",
          "type": "address"
        },
        {
          "internalType": "uint256",
          "name": "tokenId",
          "type": "uint256"
        },
        {
          "internalType": "bytes",
          "name": "data",
          "type": "bytes"
        }
      ],
      "name": "safeTransferFrom",
      "outputs": [],
      "stateMutability": "nonpayable",
      "type": "function"
    },
    {
      "inputs": [
        {
          "internalType": "address",
          "name": "operator",
          "type": "address"
        },
        {
          "internalType": "bool",
          "name": "approved",
          "type": "bool"
        }
      ],
      "name": "setApprovalForAll",
      "outputs": [],
      "stateMutability": "nonpayable",
      "type": "function"
    },
    {
      "inputs": [
        {
          "internalType": "string",
          "name": "name",
          "type": "string"
        },
        {
          "internalType": "string",
          "name": "record",
          "type": "string"
        }
      ],
      "name": "setRecord",
      "outputs": [],
      "stateMutability": "nonpayable",
      "type": "function"
    },
    {
      "inputs": [
        {
          "internalType": "bytes4",
          "name": "interfaceId",
          "type": "bytes4"
        }
      ],
      "name": "supportsInterface",
      "outputs": [
        {
          "internalType": "bool",
          "name": "",
          "type": "bool"
        }
      ],
      "stateMutability": "view",
      "type": "function"
    },
    {
      "inputs": [],
      "name": "symbol",
      "outputs": [
        {
          "internalType": "string",
          "name": "",
          "type": "string"
        }
      ],
      "stateMutability": "view",
      "type": "function"
    },
    {
      "inputs": [],
      "name": "tld",
      "outputs": [
        {
          "internalType": "string",
          "name": "",
          "type": "string"
        }
      ],
      "stateMutability": "view",
      "type": "function"
    },
    {
      "inputs": [
        {
          "internalType": "uint256",
          "name": "tokenId",
          "type": "uint256"
        }
      ],
      "name": "tokenURI",
      "outputs": [
        {
          "internalType": "string",
          "name": "",
          "type": "string"
        }
      ],
      "stateMutability": "view",
      "type": "function"
    },
    {
      "inputs": [
        {
          "internalType": "address",
          "name": "from",
          "type": "address"
        },
        {
          "internalType": "address",
          "name": "to",
          "type": "address"
        },
        {
          "internalType": "uint256",
          "name": "tokenId",
          "type": "uint256"
        }
      ],
      "name": "transferFrom",
      "outputs": [],
      "stateMutability": "nonpayable",
      "type": "function"
    },
    {
      "inputs": [
        {
          "internalType": "string",
          "name": "name",
          "type": "string"
        }
      ],
      "name": "valid",
      "outputs": [
        {
          "internalType": "bool",
          "name": "",
          "type": "bool"
        }
      ],
      "stateMutability": "pure",
      "type": "function"
    },
    {
      "inputs": [],
      "name": "withdraw",
      "outputs": [],
      "stateMutability": "nonpayable",
      "type": "function"
    }
  ],
  "bytecode": "0x6080604052604051806108a0016040528061086b81526020016200517561086b91396009908051906020019062000038929190620002c4565b506040518060400160405280600d81526020017f3c2f746578743e3c2f7376673e00000000000000000000000000000000000000815250600a908051906020019062000086929190620002c4565b50604051620059e0380380620059e08339818101604052810190620000ac919062000511565b6040518060400160405280601181526020017f4d7920446f6d61696e20536572766963650000000000000000000000000000008152506040518060400160405280600381526020017f4d44530000000000000000000000000000000000000000000000000000000000815250816000908051906020019062000130929190620002c4565b50806001908051906020019062000149929190620002c4565b50505033600e60006101000a81548173ffffffffffffffffffffffffffffffffffffffff021916908373ffffffffffffffffffffffffffffffffffffffff1602179055508060089080519060200190620001a5929190620002c4565b50620001f16040518060400160405280601a81526020017f446f6d61696e2053657276696365205374617274696e67205570000000000000815250620001f860201b62001b891760201c565b5062000648565b62000298816040516024016200020f9190620005bf565b6040516020818303038152906040527f41304fac000000000000000000000000000000000000000000000000000000007bffffffffffffffffffffffffffffffffffffffffffffffffffffffff19166020820180517bffffffffffffffffffffffffffffffffffffffffffffffffffffffff83818316178352505050506200029b60201b60201c565b50565b60008151905060006a636f6e736f6c652e6c6f679050602083016000808483855afa5050505050565b828054620002d29062000612565b90600052602060002090601f016020900481019282620002f6576000855562000342565b82601f106200031157805160ff191683800117855562000342565b8280016001018555821562000342579182015b828111156200034157825182559160200191906001019062000324565b5b50905062000351919062000355565b5090565b5b808211156200037057600081600090555060010162000356565b5090565b6000604051905090565b600080fd5b600080fd5b600080fd5b600080fd5b6000601f19601f8301169050919050565b7f4e487b7100000000000000000000000000000000000000000000000000000000600052604160045260246000fd5b620003dd8262000392565b810181811067ffffffffffffffff82111715620003ff57620003fe620003a3565b5b80604052505050565b60006200041462000374565b9050620004228282620003d2565b919050565b600067ffffffffffffffff821115620004455762000444620003a3565b5b620004508262000392565b9050602081019050919050565b60005b838110156200047d57808201518184015260208101905062000460565b838111156200048d576000848401525b50505050565b6000620004aa620004a48462000427565b62000408565b905082815260208101848484011115620004c957620004c86200038d565b5b620004d68482856200045d565b509392505050565b600082601f830112620004f657620004f562000388565b5b81516200050884826020860162000493565b91505092915050565b6000602082840312156200052a57620005296200037e565b5b600082015167ffffffffffffffff8111156200054b576200054a62000383565b5b6200055984828501620004de565b91505092915050565b600081519050919050565b600082825260208201905092915050565b60006200058b8262000562565b6200059781856200056d565b9350620005a98185602086016200045d565b620005b48162000392565b840191505092915050565b60006020820190508181036000830152620005db81846200057e565b905092915050565b7f4e487b7100000000000000000000000000000000000000000000000000000000600052602260045260246000fd5b600060028204905060018216806200062b57607f821691505b60208210811415620006425762000641620005e3565b5b50919050565b614b1d80620006586000396000f3fe60806040526004361061019c5760003560e01c806370a08231116100ec578063bf40fac11161008a578063e985e9c511610064578063e985e9c514610624578063f2c298be14610661578063fb825e5f1461067d578063fe2c6198146106a85761019c565b8063bf40fac114610581578063c1880a98146105be578063c87b56dd146105e75761019c565b806395d89b41116100c657806395d89b41146104c75780639791c097146104f2578063a22cb4651461052f578063b88d4fde146105585761019c565b806370a08231146104345780638da5cb5b146104715780638f32d59b1461049c5761019c565b8063264492351161015957806342842e0e1161013357806342842e0e146103545780634622ab031461037d578063541e771d146103ba5780636352211e146103f75761019c565b806326449235146102d55780632d551432146103125780633ccfd60b1461033d5761019c565b806301ffc9a7146101a157806306fdde03146101de578063081812fc14610209578063095ea7b31461024657806311dd88451461026f57806323b872dd146102ac575b600080fd5b3480156101ad57600080fd5b506101c860048036038101906101c391906130cd565b6106e5565b6040516101d59190613115565b60405180910390f35b3480156101ea57600080fd5b506101f36107c7565b60405161020091906131c9565b60405180910390f35b34801561021557600080fd5b50610230600480360381019061022b9190613221565b610859565b60405161023d919061328f565b60405180910390f35b34801561025257600080fd5b5061026d600480360381019061026891906132d6565b61089f565b005b34801561027b57600080fd5b506102966004803603810190610291919061337b565b6109b7565b6040516102a391906131c9565b60405180910390f35b3480156102b857600080fd5b506102d360048036038101906102ce91906133c8565b610a6a565b005b3480156102e157600080fd5b506102fc60048036038101906102f7919061354b565b610aca565b604051610309919061328f565b60405180910390f35b34801561031e57600080fd5b50610327610b13565b60405161033491906131c9565b60405180910390f35b34801561034957600080fd5b50610352610ba1565b005b34801561036057600080fd5b5061037b600480360381019061037691906133c8565b610c67565b005b34801561038957600080fd5b506103a4600480360381019061039f9190613221565b610c87565b6040516103b191906131c9565b60405180910390f35b3480156103c657600080fd5b506103e160048036038101906103dc919061354b565b610d27565b6040516103ee91906131c9565b60405180910390f35b34801561040357600080fd5b5061041e60048036038101906104199190613221565b610ddd565b60405161042b919061328f565b60405180910390f35b34801561044057600080fd5b5061045b60048036038101906104569190613594565b610e8f565b60405161046891906135d0565b60405180910390f35b34801561047d57600080fd5b50610486610f47565b604051610493919061360c565b60405180910390f35b3480156104a857600080fd5b506104b1610f6d565b6040516104be9190613115565b60405180910390f35b3480156104d357600080fd5b506104dc610fc5565b6040516104e991906131c9565b60405180910390f35b3480156104fe57600080fd5b506105196004803603810190610514919061337b565b611057565b6040516105269190613115565b60405180910390f35b34801561053b57600080fd5b5061055660048036038101906105519190613653565b61110b565b005b34801561056457600080fd5b5061057f600480360381019061057a9190613734565b611121565b005b34801561058d57600080fd5b506105a860048036038101906105a3919061337b565b611183565b6040516105b5919061328f565b60405180910390f35b3480156105ca57600080fd5b506105e560048036038101906105e091906137b7565b6111ce565b005b3480156105f357600080fd5b5061060e60048036038101906106099190613221565b6112cb565b60405161061b91906131c9565b60405180910390f35b34801561063057600080fd5b5061064b60048036038101906106469190613838565b6113de565b6040516106589190613115565b60405180910390f35b61067b6004803603810190610676919061337b565b611472565b005b34801561068957600080fd5b5061069261190c565b60405161069f9190613984565b60405180910390f35b3480156106b457600080fd5b506106cf60048036038101906106ca919061337b565b611aea565b6040516106dc91906135d0565b60405180910390f35b60007f80ac58cd000000000000000000000000000000000000000000000000000000007bffffffffffffffffffffffffffffffffffffffffffffffffffffffff1916827bffffffffffffffffffffffffffffffffffffffffffffffffffffffff191614806107b057507f5b5e139f000000000000000000000000000000000000000000000000000000007bffffffffffffffffffffffffffffffffffffffffffffffffffffffff1916827bffffffffffffffffffffffffffffffffffffffffffffffffffffffff1916145b806107c057506107bf82611c22565b5b9050919050565b6060600080546107d6906139d5565b80601f0160208091040260200160405190810160405280929190818152602001828054610802906139d5565b801561084f5780601f106108245761010080835404028352916020019161084f565b820191906000526020600020905b81548152906001019060200180831161083257829003601f168201915b5050505050905090565b600061086482611c8c565b6004600083815260200190815260200160002060009054906101000a900473ffffffffffffffffffffffffffffffffffffffff169050919050565b60006108aa82610ddd565b90508073ffffffffffffffffffffffffffffffffffffffff168373ffffffffffffffffffffffffffffffffffffffff16141561091b576040517f08c379a000000000000000000000000000000000000000000000000000000000815260040161091290613a79565b60405180910390fd5b8073ffffffffffffffffffffffffffffffffffffffff1661093a611cd7565b73ffffffffffffffffffffffffffffffffffffffff161480610969575061096881610963611cd7565b6113de565b5b6109a8576040517f08c379a000000000000000000000000000000000000000000000000000000000815260040161099f90613b0b565b60405180910390fd5b6109b28383611cdf565b505050565b6060600c83836040516109cb929190613b5b565b908152602001604051809103902080546109e4906139d5565b80601f0160208091040260200160405190810160405280929190818152602001828054610a10906139d5565b8015610a5d5780601f10610a3257610100808354040283529160200191610a5d565b820191906000526020600020905b815481529060010190602001808311610a4057829003601f168201915b5050505050905092915050565b610a7b610a75611cd7565b82611d98565b610aba576040517f08c379a0000000000000000000000000000000000000000000000000000000008152600401610ab190613be6565b60405180910390fd5b610ac5838383611e2d565b505050565b600b818051602081018201805184825260208301602085012081835280955050505050506000915054906101000a900473ffffffffffffffffffffffffffffffffffffffff1681565b60088054610b20906139d5565b80601f0160208091040260200160405190810160405280929190818152602001828054610b4c906139d5565b8015610b995780601f10610b6e57610100808354040283529160200191610b99565b820191906000526020600020905b815481529060010190602001808311610b7c57829003601f168201915b505050505081565b610ba9610f6d565b610bb257600080fd5b600047905060003373ffffffffffffffffffffffffffffffffffffffff1682604051610bdd90613c37565b60006040518083038185875af1925050503d8060008114610c1a576040519150601f19603f3d011682016040523d82523d6000602084013e610c1f565b606091505b5050905080610c63576040517f08c379a0000000000000000000000000000000000000000000000000000000008152600401610c5a90613c98565b60405180910390fd5b5050565b610c8283838360405180602001604052806000815250611121565b505050565b600d6020528060005260406000206000915090508054610ca6906139d5565b80601f0160208091040260200160405190810160405280929190818152602001828054610cd2906139d5565b8015610d1f5780601f10610cf457610100808354040283529160200191610d1f565b820191906000526020600020905b815481529060010190602001808311610d0257829003601f168201915b505050505081565b600c818051602081018201805184825260208301602085012081835280955050505050506000915090508054610d5c906139d5565b80601f0160208091040260200160405190810160405280929190818152602001828054610d88906139d5565b8015610dd55780601f10610daa57610100808354040283529160200191610dd5565b820191906000526020600020905b815481529060010190602001808311610db857829003601f168201915b505050505081565b6000806002600084815260200190815260200160002060009054906101000a900473ffffffffffffffffffffffffffffffffffffffff169050600073ffffffffffffffffffffffffffffffffffffffff168173ffffffffffffffffffffffffffffffffffffffff161415610e86576040517f08c379a0000000000000000000000000000000000000000000000000000000008152600401610e7d90613d04565b60405180910390fd5b80915050919050565b60008073ffffffffffffffffffffffffffffffffffffffff168273ffffffffffffffffffffffffffffffffffffffff161415610f00576040517f08c379a0000000000000000000000000000000000000000000000000000000008152600401610ef790613d96565b60405180910390fd5b600360008373ffffffffffffffffffffffffffffffffffffffff1673ffffffffffffffffffffffffffffffffffffffff168152602001908152602001600020549050919050565b600e60009054906101000a900473ffffffffffffffffffffffffffffffffffffffff1681565b6000600e60009054906101000a900473ffffffffffffffffffffffffffffffffffffffff1673ffffffffffffffffffffffffffffffffffffffff163373ffffffffffffffffffffffffffffffffffffffff1614905090565b606060018054610fd4906139d5565b80601f0160208091040260200160405190810160405280929190818152602001828054611000906139d5565b801561104d5780601f106110225761010080835404028352916020019161104d565b820191906000526020600020905b81548152906001019060200180831161103057829003601f168201915b5050505050905090565b600060036110a884848080601f016020809104026020016040519081016040528093929190818152602001838380828437600081840152601f19601f82011690508083019250505050505050612094565b101580156111035750600a61110084848080601f016020809104026020016040519081016040528093929190818152602001838380828437600081840152601f19601f82011690508083019250505050505050612094565b11155b905092915050565b61111d611116611cd7565b8383612249565b5050565b61113261112c611cd7565b83611d98565b611171576040517f08c379a000000000000000000000000000000000000000000000000000000000815260040161116890613be6565b60405180910390fd5b61117d848484846123b6565b50505050565b6000600b8383604051611197929190613b5b565b908152602001604051809103902060009054906101000a900473ffffffffffffffffffffffffffffffffffffffff16905092915050565b600b84846040516111e0929190613b5b565b908152602001604051809103902060009054906101000a900473ffffffffffffffffffffffffffffffffffffffff1673ffffffffffffffffffffffffffffffffffffffff163373ffffffffffffffffffffffffffffffffffffffff1614611273576040517f82b4290000000000000000000000000000000000000000000000000000000000815260040160405180910390fd5b8181600c8686604051611287929190613b5b565b908152602001604051809103902091906112a2929190612f38565b506112c5604051806060016040528060228152602001614a1c6022913933612412565b50505050565b60606112d682611c8c565b60006006600084815260200190815260200160002080546112f6906139d5565b80601f0160208091040260200160405190810160405280929190818152602001828054611322906139d5565b801561136f5780601f106113445761010080835404028352916020019161136f565b820191906000526020600020905b81548152906001019060200180831161135257829003601f168201915b5050505050905060006113806124ae565b90506000815114156113965781925050506113d9565b6000825111156113cb5780826040516020016113b3929190613de7565b604051602081830303815290604052925050506113d9565b6113d4846124c5565b925050505b919050565b6000600560008473ffffffffffffffffffffffffffffffffffffffff1673ffffffffffffffffffffffffffffffffffffffff16815260200190815260200160002060008373ffffffffffffffffffffffffffffffffffffffff1673ffffffffffffffffffffffffffffffffffffffff16815260200190815260200160002060009054906101000a900460ff16905092915050565b600073ffffffffffffffffffffffffffffffffffffffff16600b838360405161149c929190613b5b565b908152602001604051809103902060009054906101000a900473ffffffffffffffffffffffffffffffffffffffff1673ffffffffffffffffffffffffffffffffffffffff1614611518576040517f3a81d6fc00000000000000000000000000000000000000000000000000000000815260040160405180910390fd5b6115228282611057565b6115655781816040517f7f19f48d00000000000000000000000000000000000000000000000000000000815260040161155c929190613e38565b60405180910390fd5b60006115718383611aea565b9050803410156115b6576040517f08c379a00000000000000000000000000000000000000000000000000000000081526004016115ad90613ea8565b60405180910390fd5b6000838360086040516020016115ce93929190613fa8565b60405160208183030381529060405290506000600982600a6040516020016115f893929190613fd9565b60405160208183030381529060405290506000611615600761252d565b9050600061166687878080601f016020809104026020016040519081016040528093929190818152602001838380828437600081840152601f19601f82011690508083019250505050505050612094565b905060006116738261253b565b9050611767604051806060016040528060318152602001614a3e6031913989898080601f016020809104026020016040519081016040528093929190818152602001838380828437600081840152601f19601f82011690508083019250505050505050600880546116e3906139d5565b80601f016020809104026020016040519081016040528092919081815260200182805461170f906139d5565b801561175c5780601f106117315761010080835404028352916020019161175c565b820191906000526020600020905b81548152906001019060200180831161173f57829003601f168201915b50505050508661269c565b600061179d866117768761273e565b8460405160200161178993929190614186565b60405160208183030381529060405261273e565b90506000816040516020016117b2919061422f565b60405160208183030381529060405290506117e46040518060600160405280603981526020016149e360399139611b89565b6118236040518060400160405280600e81526020017f46696e616c20746f6b656e555249000000000000000000000000000000000000815250826128d6565b611844604051806060016040528060398152602001614a6f60399139611b89565b61184e3386612972565b6118588582612990565b33600b8b8b60405161186b929190613b5b565b908152602001604051809103902060006101000a81548173ffffffffffffffffffffffffffffffffffffffff021916908373ffffffffffffffffffffffffffffffffffffffff1602179055506118c16007612a04565b6119006040518060400160405280601b81526020017f2573206861732072656769737465726564206120646f6d61696e21000000000081525033612412565b50505050505050505050565b606061194c6040518060400160405280601f81526020017f47657474696e6720616c6c206e616d65732066726f6d20636f6e747261637400815250611b89565b6000611958600761252d565b67ffffffffffffffff81111561197157611970613420565b5b6040519080825280602002602001820160405280156119a457816020015b606081526020019060019003908161198f5790505b50905060005b6119b4600761252d565b811015611ae257600d600082815260200190815260200160002080546119d9906139d5565b80601f0160208091040260200160405190810160405280929190818152602001828054611a05906139d5565b8015611a525780601f10611a2757610100808354040283529160200191611a52565b820191906000526020600020905b815481529060010190602001808311611a3557829003601f168201915b5050505050828281518110611a6a57611a69614251565b5b6020026020010181905250611acf6040518060400160405280601781526020017f4e616d6520666f7220746f6b656e20256420697320257300000000000000000081525082848481518110611ac257611ac1614251565b5b6020026020010151612a1a565b8080611ada906142af565b9150506119aa565b508091505090565b600080611b3a84848080601f016020809104026020016040519081016040528093929190818152602001838380828437600081840152601f19601f82011690508083019250505050505050612094565b905060008111611b4957600080fd5b6003811415611b615765048c27395000915050611b83565b6004811415611b79576502ba7def3000915050611b83565b64e8d4a510009150505b92915050565b611c1f81604051602401611b9d91906131c9565b6040516020818303038152906040527f41304fac000000000000000000000000000000000000000000000000000000007bffffffffffffffffffffffffffffffffffffffffffffffffffffffff19166020820180517bffffffffffffffffffffffffffffffffffffffffffffffffffffffff8381831617835250505050612ab9565b50565b60007f01ffc9a7000000000000000000000000000000000000000000000000000000007bffffffffffffffffffffffffffffffffffffffffffffffffffffffff1916827bffffffffffffffffffffffffffffffffffffffffffffffffffffffff1916149050919050565b611c9581612ae2565b611cd4576040517f08c379a0000000000000000000000000000000000000000000000000000000008152600401611ccb90613d04565b60405180910390fd5b50565b600033905090565b816004600083815260200190815260200160002060006101000a81548173ffffffffffffffffffffffffffffffffffffffff021916908373ffffffffffffffffffffffffffffffffffffffff160217905550808273ffffffffffffffffffffffffffffffffffffffff16611d5283610ddd565b73ffffffffffffffffffffffffffffffffffffffff167f8c5be1e5ebec7d5bd14f71427d1e84f3dd0314c0f7b2291e5b200ac8c7c3b92560405160405180910390a45050565b600080611da483610ddd565b90508073ffffffffffffffffffffffffffffffffffffffff168473ffffffffffffffffffffffffffffffffffffffff161480611de65750611de581856113de565b5b80611e2457508373ffffffffffffffffffffffffffffffffffffffff16611e0c84610859565b73ffffffffffffffffffffffffffffffffffffffff16145b91505092915050565b8273ffffffffffffffffffffffffffffffffffffffff16611e4d82610ddd565b73ffffffffffffffffffffffffffffffffffffffff1614611ea3576040517f08c379a0000000000000000000000000000000000000000000000000000000008152600401611e9a9061436a565b60405180910390fd5b600073ffffffffffffffffffffffffffffffffffffffff168273ffffffffffffffffffffffffffffffffffffffff161415611f13576040517f08c379a0000000000000000000000000000000000000000000000000000000008152600401611f0a906143fc565b60405180910390fd5b611f1e838383612b4e565b611f29600082611cdf565b6001600360008573ffffffffffffffffffffffffffffffffffffffff1673ffffffffffffffffffffffffffffffffffffffff1681526020019081526020016000206000828254611f79919061441c565b925050819055506001600360008473ffffffffffffffffffffffffffffffffffffffff1673ffffffffffffffffffffffffffffffffffffffff1681526020019081526020016000206000828254611fd09190614450565b92505081905550816002600083815260200190815260200160002060006101000a81548173ffffffffffffffffffffffffffffffffffffffff021916908373ffffffffffffffffffffffffffffffffffffffff160217905550808273ffffffffffffffffffffffffffffffffffffffff168473ffffffffffffffffffffffffffffffffffffffff167fddf252ad1be2c89b69c2b068fc378daa952ba7f163c4a11628f55a4df523b3ef60405160405180910390a461208f838383612b53565b505050565b60008060008084519050600092505b8082101561223e5760008583815181106120c0576120bf614251565b5b602001015160f81c60f81b9050608060f81b817effffffffffffffffffffffffffffffffffffffffffffffffffffffffffffff1916101561210f576001836121089190614450565b925061222a565b60e060f81b817effffffffffffffffffffffffffffffffffffffffffffffffffffffffffffff191610156121515760028361214a9190614450565b9250612229565b60f060f81b817effffffffffffffffffffffffffffffffffffffffffffffffffffffffffffff191610156121935760038361218c9190614450565b9250612228565b60f8801b817effffffffffffffffffffffffffffffffffffffffffffffffffffffffffffff191610156121d4576004836121cd9190614450565b9250612227565b60fc60f81b817effffffffffffffffffffffffffffffffffffffffffffffffffffffffffffff191610156122165760058361220f9190614450565b9250612226565b6006836122239190614450565b92505b5b5b5b5b508280612236906142af565b9350506120a3565b829350505050919050565b8173ffffffffffffffffffffffffffffffffffffffff168373ffffffffffffffffffffffffffffffffffffffff1614156122b8576040517f08c379a00000000000000000000000000000000000000000000000000000000081526004016122af906144f2565b60405180910390fd5b80600560008573ffffffffffffffffffffffffffffffffffffffff1673ffffffffffffffffffffffffffffffffffffffff16815260200190815260200160002060008473ffffffffffffffffffffffffffffffffffffffff1673ffffffffffffffffffffffffffffffffffffffff16815260200190815260200160002060006101000a81548160ff0219169083151502179055508173ffffffffffffffffffffffffffffffffffffffff168373ffffffffffffffffffffffffffffffffffffffff167f17307eab39ab6107e8899845ad3d59bd9653f200f220920489ca2b5937696c31836040516123a99190613115565b60405180910390a3505050565b6123c1848484611e2d565b6123cd84848484612b58565b61240c576040517f08c379a000000000000000000000000000000000000000000000000000000000815260040161240390614584565b60405180910390fd5b50505050565b6124aa82826040516024016124289291906145a4565b6040516020818303038152906040527f319af333000000000000000000000000000000000000000000000000000000007bffffffffffffffffffffffffffffffffffffffffffffffffffffffff19166020820180517bffffffffffffffffffffffffffffffffffffffffffffffffffffffff8381831617835250505050612ab9565b5050565b606060405180602001604052806000815250905090565b60606124d082611c8c565b60006124da6124ae565b905060008151116124fa5760405180602001604052806000815250612525565b806125048461253b565b604051602001612515929190613de7565b6040516020818303038152906040525b915050919050565b600081600001549050919050565b60606000821415612583576040518060400160405280600181526020017f30000000000000000000000000000000000000000000000000000000000000008152509050612697565b600082905060005b600082146125b557808061259e906142af565b915050600a826125ae9190614603565b915061258b565b60008167ffffffffffffffff8111156125d1576125d0613420565b5b6040519080825280601f01601f1916602001820160405280156126035781602001600182028036833780820191505090505b5090505b600085146126905760018261261c919061441c565b9150600a8561262b9190614634565b60306126379190614450565b60f81b81838151811061264d5761264c614251565b5b60200101907effffffffffffffffffffffffffffffffffffffffffffffffffffffffffffff1916908160001a905350600a856126899190614603565b9450612607565b8093505050505b919050565b612738848484846040516024016126b69493929190614665565b6040516020818303038152906040527f8eafb02b000000000000000000000000000000000000000000000000000000007bffffffffffffffffffffffffffffffffffffffffffffffffffffffff19166020820180517bffffffffffffffffffffffffffffffffffffffffffffffffffffffff8381831617835250505050612ab9565b50505050565b6060600082519050600081141561276757604051806020016040528060008152509150506128d1565b600060036002836127789190614450565b6127829190614603565b600461278e91906146bf565b9050600060208261279f9190614450565b67ffffffffffffffff8111156127b8576127b7613420565b5b6040519080825280601f01601f1916602001820160405280156127ea5781602001600182028036833780820191505090505b5090506000604051806060016040528060408152602001614aa8604091399050600181016020830160005b8681101561288e5760038101905062ffffff818a015116603f8160121c168401518060081b905060ff603f83600c1c1686015116810190508060081b905060ff603f8360061c1686015116810190508060081b905060ff603f831686015116810190508060e01b90508084526004840193505050612815565b5060038606600181146128a857600281146128b8576128c3565b613d3d60f01b60028303526128c3565b603d60f81b60018303525b508484525050819450505050505b919050565b61296e82826040516024016128ec929190614719565b6040516020818303038152906040527f4b5c4277000000000000000000000000000000000000000000000000000000007bffffffffffffffffffffffffffffffffffffffffffffffffffffffff19166020820180517bffffffffffffffffffffffffffffffffffffffffffffffffffffffff8381831617835250505050612ab9565b5050565b61298c828260405180602001604052806000815250612ce0565b5050565b61299982612ae2565b6129d8576040517f08c379a00000000000000000000000000000000000000000000000000000000081526004016129cf906147c2565b60405180910390fd5b806006600084815260200190815260200160002090805190602001906129ff929190612fbe565b505050565b6001816000016000828254019250508190555050565b612ab4838383604051602401612a32939291906147e2565b6040516020818303038152906040527f5970e089000000000000000000000000000000000000000000000000000000007bffffffffffffffffffffffffffffffffffffffffffffffffffffffff19166020820180517bffffffffffffffffffffffffffffffffffffffffffffffffffffffff8381831617835250505050612ab9565b505050565b60008151905060006a636f6e736f6c652e6c6f679050602083016000808483855afa5050505050565b60008073ffffffffffffffffffffffffffffffffffffffff166002600084815260200190815260200160002060009054906101000a900473ffffffffffffffffffffffffffffffffffffffff1673ffffffffffffffffffffffffffffffffffffffff1614159050919050565b505050565b505050565b6000612b798473ffffffffffffffffffffffffffffffffffffffff16612d3b565b15612cd3578373ffffffffffffffffffffffffffffffffffffffff1663150b7a02612ba2611cd7565b8786866040518563ffffffff1660e01b8152600401612bc4949392919061487c565b6020604051808303816000875af1925050508015612c0057506040513d601f19601f82011682018060405250810190612bfd91906148dd565b60015b612c83573d8060008114612c30576040519150601f19603f3d011682016040523d82523d6000602084013e612c35565b606091505b50600081511415612c7b576040517f08c379a0000000000000000000000000000000000000000000000000000000008152600401612c7290614584565b60405180910390fd5b805181602001fd5b63150b7a0260e01b7bffffffffffffffffffffffffffffffffffffffffffffffffffffffff1916817bffffffffffffffffffffffffffffffffffffffffffffffffffffffff191614915050612cd8565b600190505b949350505050565b612cea8383612d5e565b612cf76000848484612b58565b612d36576040517f08c379a0000000000000000000000000000000000000000000000000000000008152600401612d2d90614584565b60405180910390fd5b505050565b6000808273ffffffffffffffffffffffffffffffffffffffff163b119050919050565b600073ffffffffffffffffffffffffffffffffffffffff168273ffffffffffffffffffffffffffffffffffffffff161415612dce576040517f08c379a0000000000000000000000000000000000000000000000000000000008152600401612dc590614956565b60405180910390fd5b612dd781612ae2565b15612e17576040517f08c379a0000000000000000000000000000000000000000000000000000000008152600401612e0e906149c2565b60405180910390fd5b612e2360008383612b4e565b6001600360008473ffffffffffffffffffffffffffffffffffffffff1673ffffffffffffffffffffffffffffffffffffffff1681526020019081526020016000206000828254612e739190614450565b92505081905550816002600083815260200190815260200160002060006101000a81548173ffffffffffffffffffffffffffffffffffffffff021916908373ffffffffffffffffffffffffffffffffffffffff160217905550808273ffffffffffffffffffffffffffffffffffffffff16600073ffffffffffffffffffffffffffffffffffffffff167fddf252ad1be2c89b69c2b068fc378daa952ba7f163c4a11628f55a4df523b3ef60405160405180910390a4612f3460008383612b53565b5050565b828054612f44906139d5565b90600052602060002090601f016020900481019282612f665760008555612fad565b82601f10612f7f57803560ff1916838001178555612fad565b82800160010185558215612fad579182015b82811115612fac578235825591602001919060010190612f91565b5b509050612fba9190613044565b5090565b828054612fca906139d5565b90600052602060002090601f016020900481019282612fec5760008555613033565b82601f1061300557805160ff1916838001178555613033565b82800160010185558215613033579182015b82811115613032578251825591602001919060010190613017565b5b5090506130409190613044565b5090565b5b8082111561305d576000816000905550600101613045565b5090565b6000604051905090565b600080fd5b600080fd5b60007fffffffff0000000000000000000000000000000000000000000000000000000082169050919050565b6130aa81613075565b81146130b557600080fd5b50565b6000813590506130c7816130a1565b92915050565b6000602082840312156130e3576130e261306b565b5b60006130f1848285016130b8565b91505092915050565b60008115159050919050565b61310f816130fa565b82525050565b600060208201905061312a6000830184613106565b92915050565b600081519050919050565b600082825260208201905092915050565b60005b8381101561316a57808201518184015260208101905061314f565b83811115613179576000848401525b50505050565b6000601f19601f8301169050919050565b600061319b82613130565b6131a5818561313b565b93506131b581856020860161314c565b6131be8161317f565b840191505092915050565b600060208201905081810360008301526131e38184613190565b905092915050565b6000819050919050565b6131fe816131eb565b811461320957600080fd5b50565b60008135905061321b816131f5565b92915050565b6000602082840312156132375761323661306b565b5b60006132458482850161320c565b91505092915050565b600073ffffffffffffffffffffffffffffffffffffffff82169050919050565b60006132798261324e565b9050919050565b6132898161326e565b82525050565b60006020820190506132a46000830184613280565b92915050565b6132b38161326e565b81146132be57600080fd5b50565b6000813590506132d0816132aa565b92915050565b600080604083850312156132ed576132ec61306b565b5b60006132fb858286016132c1565b925050602061330c8582860161320c565b9150509250929050565b600080fd5b600080fd5b600080fd5b60008083601f84011261333b5761333a613316565b5b8235905067ffffffffffffffff8111156133585761335761331b565b5b60208301915083600182028301111561337457613373613320565b5b9250929050565b600080602083850312156133925761339161306b565b5b600083013567ffffffffffffffff8111156133b0576133af613070565b5b6133bc85828601613325565b92509250509250929050565b6000806000606084860312156133e1576133e061306b565b5b60006133ef868287016132c1565b9350506020613400868287016132c1565b92505060406134118682870161320c565b9150509250925092565b600080fd5b7f4e487b7100000000000000000000000000000000000000000000000000000000600052604160045260246000fd5b6134588261317f565b810181811067ffffffffffffffff8211171561347757613476613420565b5b80604052505050565b600061348a613061565b9050613496828261344f565b919050565b600067ffffffffffffffff8211156134b6576134b5613420565b5b6134bf8261317f565b9050602081019050919050565b82818337600083830152505050565b60006134ee6134e98461349b565b613480565b90508281526020810184848401111561350a5761350961341b565b5b6135158482856134cc565b509392505050565b600082601f83011261353257613531613316565b5b81356135428482602086016134db565b91505092915050565b6000602082840312156135615761356061306b565b5b600082013567ffffffffffffffff81111561357f5761357e613070565b5b61358b8482850161351d565b91505092915050565b6000602082840312156135aa576135a961306b565b5b60006135b8848285016132c1565b91505092915050565b6135ca816131eb565b82525050565b60006020820190506135e560008301846135c1565b92915050565b60006135f68261324e565b9050919050565b613606816135eb565b82525050565b600060208201905061362160008301846135fd565b92915050565b613630816130fa565b811461363b57600080fd5b50565b60008135905061364d81613627565b92915050565b6000806040838503121561366a5761366961306b565b5b6000613678858286016132c1565b92505060206136898582860161363e565b9150509250929050565b600067ffffffffffffffff8211156136ae576136ad613420565b5b6136b78261317f565b9050602081019050919050565b60006136d76136d284613693565b613480565b9050828152602081018484840111156136f3576136f261341b565b5b6136fe8482856134cc565b509392505050565b600082601f83011261371b5761371a613316565b5b813561372b8482602086016136c4565b91505092915050565b6000806000806080858703121561374e5761374d61306b565b5b600061375c878288016132c1565b945050602061376d878288016132c1565b935050604061377e8782880161320c565b925050606085013567ffffffffffffffff81111561379f5761379e613070565b5b6137ab87828801613706565b91505092959194509250565b600080600080604085870312156137d1576137d061306b565b5b600085013567ffffffffffffffff8111156137ef576137ee613070565b5b6137fb87828801613325565b9450945050602085013567ffffffffffffffff81111561381e5761381d613070565b5b61382a87828801613325565b925092505092959194509250565b6000806040838503121561384f5761384e61306b565b5b600061385d858286016132c1565b925050602061386e858286016132c1565b9150509250929050565b600081519050919050565b600082825260208201905092915050565b6000819050602082019050919050565b600082825260208201905092915050565b60006138c082613130565b6138ca81856138a4565b93506138da81856020860161314c565b6138e38161317f565b840191505092915050565b60006138fa83836138b5565b905092915050565b6000602082019050919050565b600061391a82613878565b6139248185613883565b93508360208202850161393685613894565b8060005b85811015613972578484038952815161395385826138ee565b945061395e83613902565b925060208a0199505060018101905061393a565b50829750879550505050505092915050565b6000602082019050818103600083015261399e818461390f565b905092915050565b7f4e487b7100000000000000000000000000000000000000000000000000000000600052602260045260246000fd5b600060028204905060018216806139ed57607f821691505b60208210811415613a0157613a006139a6565b5b50919050565b7f4552433732313a20617070726f76616c20746f2063757272656e74206f776e6560008201527f7200000000000000000000000000000000000000000000000000000000000000602082015250565b6000613a6360218361313b565b9150613a6e82613a07565b604082019050919050565b60006020820190508181036000830152613a9281613a56565b9050919050565b7f4552433732313a20617070726f76652063616c6c6572206973206e6f7420746f60008201527f6b656e206f776e6572206e6f7220617070726f76656420666f7220616c6c0000602082015250565b6000613af5603e8361313b565b9150613b0082613a99565b604082019050919050565b60006020820190508181036000830152613b2481613ae8565b9050919050565b600081905092915050565b6000613b428385613b2b565b9350613b4f8385846134cc565b82840190509392505050565b6000613b68828486613b36565b91508190509392505050565b7f4552433732313a2063616c6c6572206973206e6f7420746f6b656e206f776e6560008201527f72206e6f7220617070726f766564000000000000000000000000000000000000602082015250565b6000613bd0602e8361313b565b9150613bdb82613b74565b604082019050919050565b60006020820190508181036000830152613bff81613bc3565b9050919050565b600081905092915050565b50565b6000613c21600083613c06565b9150613c2c82613c11565b600082019050919050565b6000613c4282613c14565b9150819050919050565b7f4661696c656420746f207769746864726177204d617469630000000000000000600082015250565b6000613c8260188361313b565b9150613c8d82613c4c565b602082019050919050565b60006020820190508181036000830152613cb181613c75565b9050919050565b7f4552433732313a20696e76616c696420746f6b656e2049440000000000000000600082015250565b6000613cee60188361313b565b9150613cf982613cb8565b602082019050919050565b60006020820190508181036000830152613d1d81613ce1565b9050919050565b7f4552433732313a2061646472657373207a65726f206973206e6f74206120766160008201527f6c6964206f776e65720000000000000000000000000000000000000000000000602082015250565b6000613d8060298361313b565b9150613d8b82613d24565b604082019050919050565b60006020820190508181036000830152613daf81613d73565b9050919050565b6000613dc182613130565b613dcb8185613b2b565b9350613ddb81856020860161314c565b80840191505092915050565b6000613df38285613db6565b9150613dff8284613db6565b91508190509392505050565b6000613e17838561313b565b9350613e248385846134cc565b613e2d8361317f565b840190509392505050565b60006020820190508181036000830152613e53818486613e0b565b90509392505050565b7f4e6f7420656e6f756768204d6174696320706169640000000000000000000000600082015250565b6000613e9260158361313b565b9150613e9d82613e5c565b602082019050919050565b60006020820190508181036000830152613ec181613e85565b9050919050565b7f2e00000000000000000000000000000000000000000000000000000000000000600082015250565b6000613efe600183613b2b565b9150613f0982613ec8565b600182019050919050565b60008190508160005260206000209050919050565b60008154613f36816139d5565b613f408186613b2b565b94506001821660008114613f5b5760018114613f6c57613f9f565b60ff19831686528186019350613f9f565b613f7585613f14565b60005b83811015613f9757815481890152600182019150602081019050613f78565b838801955050505b50505092915050565b6000613fb5828587613b36565b9150613fc082613ef1565b9150613fcc8284613f29565b9150819050949350505050565b6000613fe58286613f29565b9150613ff18285613db6565b9150613ffd8284613f29565b9150819050949350505050565b7f7b226e616d65223a202200000000000000000000000000000000000000000000600082015250565b6000614040600a83613b2b565b915061404b8261400a565b600a82019050919050565b7f222c20226465736372697074696f6e223a20224120646f6d61696e206f6e207460008201527f6865204e696e6a61206e616d652073657276696365222c2022696d616765223a60208201527f2022646174613a696d6167652f7376672b786d6c3b6261736536342c00000000604082015250565b60006140d8605c83613b2b565b91506140e382614056565b605c82019050919050565b7f222c226c656e677468223a220000000000000000000000000000000000000000600082015250565b6000614124600c83613b2b565b915061412f826140ee565b600c82019050919050565b7f227d000000000000000000000000000000000000000000000000000000000000600082015250565b6000614170600283613b2b565b915061417b8261413a565b600282019050919050565b600061419182614033565b915061419d8286613db6565b91506141a8826140cb565b91506141b48285613db6565b91506141bf82614117565b91506141cb8284613db6565b91506141d682614163565b9150819050949350505050565b7f646174613a6170706c69636174696f6e2f6a736f6e3b6261736536342c000000600082015250565b6000614219601d83613b2b565b9150614224826141e3565b601d82019050919050565b600061423a8261420c565b91506142468284613db6565b915081905092915050565b7f4e487b7100000000000000000000000000000000000000000000000000000000600052603260045260246000fd5b7f4e487b7100000000000000000000000000000000000000000000000000000000600052601160045260246000fd5b60006142ba826131eb565b91507fffffffffffffffffffffffffffffffffffffffffffffffffffffffffffffffff8214156142ed576142ec614280565b5b600182019050919050565b7f4552433732313a207472616e736665722066726f6d20696e636f72726563742060008201527f6f776e6572000000000000000000000000000000000000000000000000000000602082015250565b600061435460258361313b565b915061435f826142f8565b604082019050919050565b6000602082019050818103600083015261438381614347565b9050919050565b7f4552433732313a207472616e7366657220746f20746865207a65726f2061646460008201527f7265737300000000000000000000000000000000000000000000000000000000602082015250565b60006143e660248361313b565b91506143f18261438a565b604082019050919050565b60006020820190508181036000830152614415816143d9565b9050919050565b6000614427826131eb565b9150614432836131eb565b92508282101561444557614444614280565b5b828203905092915050565b600061445b826131eb565b9150614466836131eb565b9250827fffffffffffffffffffffffffffffffffffffffffffffffffffffffffffffffff0382111561449b5761449a614280565b5b828201905092915050565b7f4552433732313a20617070726f766520746f2063616c6c657200000000000000600082015250565b60006144dc60198361313b565b91506144e7826144a6565b602082019050919050565b6000602082019050818103600083015261450b816144cf565b9050919050565b7f4552433732313a207472616e7366657220746f206e6f6e20455243373231526560008201527f63656976657220696d706c656d656e7465720000000000000000000000000000602082015250565b600061456e60328361313b565b915061457982614512565b604082019050919050565b6000602082019050818103600083015261459d81614561565b9050919050565b600060408201905081810360008301526145be8185613190565b90506145cd6020830184613280565b9392505050565b7f4e487b7100000000000000000000000000000000000000000000000000000000600052601260045260246000fd5b600061460e826131eb565b9150614619836131eb565b925082614629576146286145d4565b5b828204905092915050565b600061463f826131eb565b915061464a836131eb565b92508261465a576146596145d4565b5b828206905092915050565b6000608082019050818103600083015261467f8187613190565b905081810360208301526146938186613190565b905081810360408301526146a78185613190565b90506146b660608301846135c1565b95945050505050565b60006146ca826131eb565b91506146d5836131eb565b9250817fffffffffffffffffffffffffffffffffffffffffffffffffffffffffffffffff048311821515161561470e5761470d614280565b5b828202905092915050565b600060408201905081810360008301526147338185613190565b905081810360208301526147478184613190565b90509392505050565b7f45524337323155524953746f726167653a2055524920736574206f66206e6f6e60008201527f6578697374656e7420746f6b656e000000000000000000000000000000000000602082015250565b60006147ac602e8361313b565b91506147b782614750565b604082019050919050565b600060208201905081810360008301526147db8161479f565b9050919050565b600060608201905081810360008301526147fc8186613190565b905061480b60208301856135c1565b818103604083015261481d8184613190565b9050949350505050565b600081519050919050565b600082825260208201905092915050565b600061484e82614827565b6148588185614832565b935061486881856020860161314c565b6148718161317f565b840191505092915050565b60006080820190506148916000830187613280565b61489e6020830186613280565b6148ab60408301856135c1565b81810360608301526148bd8184614843565b905095945050505050565b6000815190506148d7816130a1565b92915050565b6000602082840312156148f3576148f261306b565b5b6000614901848285016148c8565b91505092915050565b7f4552433732313a206d696e7420746f20746865207a65726f2061646472657373600082015250565b600061494060208361313b565b915061494b8261490a565b602082019050919050565b6000602082019050818103600083015261496f81614933565b9050919050565b7f4552433732313a20746f6b656e20616c7265616479206d696e74656400000000600082015250565b60006149ac601c8361313b565b91506149b782614976565b602082019050919050565b600060208201905081810360008301526149db8161499f565b905091905056fe0a2d2d2d2d2d2d2d2d2d2d2d2d2d2d2d2d2d2d2d2d2d2d2d2d2d2d2d2d2d2d2d2d2d2d2d2d2d2d2d2d2d2d2d2d2d2d2d2d2d2d2d2d2d2d2d2d2573206861732072656769737465726564206120646f6d61696e207265636f7264215265676973746572696e672025732e2573206f6e2074686520636f6e7472616374207769746820746f6b656e49442025642d2d2d2d2d2d2d2d2d2d2d2d2d2d2d2d2d2d2d2d2d2d2d2d2d2d2d2d2d2d2d2d2d2d2d2d2d2d2d2d2d2d2d2d2d2d2d2d2d2d2d2d2d2d2d2d0a4142434445464748494a4b4c4d4e4f505152535455565758595a6162636465666768696a6b6c6d6e6f707172737475767778797a303132333435363738392b2fa26469706673582212201730487dd3e33c0497bae8d286b7c68a421b6e18b86c21cd53b229fcb31e83fe64736f6c634300080a00333c73766720786d6c6e733d22687474703a2f2f7777772e77332e6f72672f323030302f737667222077696474683d2232373022206865696768743d22323730222066696c6c3d226e6f6e65223e3c706174682066696c6c3d2275726c282342292220643d224d302030683237307632373048307a222f3e3c646566733e3c66696c7465722069643d22412220636f6c6f722d696e746572706f6c6174696f6e2d66696c746572733d2273524742222066696c746572556e6974733d227573657253706163654f6e55736522206865696768743d22323730222077696474683d22323730223e3c666544726f70536861646f772064783d2230222064793d22312220737464446576696174696f6e3d22322220666c6f6f642d6f7061636974793d222e323235222077696474683d223230302522206865696768743d2232303025222f3e3c2f66696c7465723e3c2f646566733e3c7061746820643d224d37322e3836332034322e393439632d2e3636382d2e3338372d312e3432362d2e35392d322e3139372d2e3539732d312e3532392e3230342d322e3139372e35396c2d31302e30383120362e3033322d362e383520332e3933342d31302e30383120362e303332632d2e3636382e3338372d312e3432362e35392d322e3139372e3539732d312e3532392d2e3230342d322e3139372d2e35396c2d382e3031332d342e37323161342e353220342e35322030203020312d312e3538392d312e363136632d2e3338342d2e3636352d2e3539342d312e3431382d2e3630382d322e313837762d392e3331632d2e3031332d2e3737352e3138352d312e3533382e3537322d322e32303861342e323520342e323520302030203120312e3632352d312e3539356c372e3838342d342e3539632e3636382d2e33383720312e3432362d2e353920322e3139372d2e353973312e3532392e32303420322e3139372e35396c372e38383420342e353961342e353220342e353220302030203120312e35383920312e363136632e3338342e3636352e35393420312e3431382e36303820322e31383776362e3033326c362e38352d342e303635762d362e303332632e3031332d2e3737352d2e3138352d312e3533382d2e3537322d322e32303861342e323520342e32352030203020302d312e3632352d312e3539354c34312e3435362032342e3539632d2e3636382d2e3338372d312e3432362d2e35392d322e3139372d2e3539732d312e3532392e3230342d322e3139372e35396c2d31342e38363420382e36353561342e323520342e32352030203020302d312e36323520312e353935632d2e3338372e36372d2e35383520312e3433342d2e35373220322e3230387631372e343431632d2e3031332e3737352e31383520312e3533382e35373220322e32303861342e323520342e323520302030203020312e36323520312e3539356c31342e38363420382e363535632e3636382e33383720312e3432362e353920322e3139372e353973312e3532392d2e32303420322e3139372d2e35396c31302e3038312d352e39303120362e38352d342e3036352031302e3038312d352e393031632e3636382d2e33383720312e3432362d2e353920322e3139372d2e353973312e3532392e32303420322e3139372e35396c372e38383420342e353961342e353220342e353220302030203120312e35383920312e363136632e3338342e3636352e35393420312e3431382e36303820322e31383776392e333131632e3031332e3737352d2e31383520312e3533382d2e35373220322e32303861342e323520342e32352030203020312d312e36323520312e3539356c2d372e38383420342e373231632d2e3636382e3338372d312e3432362e35392d322e3139372e3539732d312e3532392d2e3230342d322e3139372d2e35396c2d372e3838342d342e353961342e353220342e35322030203020312d312e3538392d312e363136632d2e3338352d2e3636352d2e3539342d312e3431382d2e3630382d322e313837762d362e3033326c2d362e383520342e30363576362e303332632d2e3031332e3737352e31383520312e3533382e35373220322e32303861342e323520342e323520302030203020312e36323520312e3539356c31342e38363420382e363535632e3636382e33383720312e3432362e353920322e3139372e353973312e3532392d2e32303420322e3139372d2e35396c31342e3836342d382e363535632e3635372d2e33393420312e3230342d2e393520312e3538392d312e363136732e3539342d312e3431382e3630392d322e3138375635352e353338632e3031332d2e3737352d2e3138352d312e3533382d2e3537322d322e32303861342e323520342e32352030203020302d312e3632352d312e3539356c2d31342e3939332d382e3738367a222066696c6c3d2223666666222f3e3c646566733e3c6c696e6561724772616469656e742069643d2242222078313d2230222079313d2230222078323d22323730222079323d2232373022206772616469656e74556e6974733d227573657253706163654f6e557365223e3c73746f702073746f702d636f6c6f723d2223636235656565222f3e3c73746f70206f66667365743d2231222073746f702d636f6c6f723d2223306364376534222073746f702d6f7061636974793d222e3939222f3e3c2f6c696e6561724772616469656e743e3c2f646566733e3c7465787420783d2233322e352220793d223233312220666f6e742d73697a653d223237222066696c6c3d2223666666222066696c7465723d2275726c282341292220666f6e742d66616d696c793d22506c7573204a616b617274612053616e732c44656a6156752053616e732c4e6f746f20436f6c6f7220456d6f6a692c4170706c6520436f6c6f7220456d6f6a692c73616e732d73657269662220666f6e742d7765696768743d22626f6c64223e",
  "linkReferences": {},
  "deployedLinkReferences": {}
}